{
  "contractName": "Lottery",
  "abi": [
    {
      "inputs": [],
      "payable": false,
      "stateMutability": "nonpayable",
      "type": "constructor"
    },
    {
      "constant": true,
      "inputs": [],
      "name": "manager",
      "outputs": [
        {
          "internalType": "address",
          "name": "",
          "type": "address"
        }
      ],
      "payable": false,
      "stateMutability": "view",
      "type": "function"
    },
    {
      "constant": true,
      "inputs": [
        {
          "internalType": "uint256",
          "name": "",
          "type": "uint256"
        }
      ],
      "name": "players",
      "outputs": [
        {
          "internalType": "address",
          "name": "",
          "type": "address"
        }
      ],
      "payable": false,
      "stateMutability": "view",
      "type": "function"
    },
    {
      "constant": true,
      "inputs": [],
      "name": "round",
      "outputs": [
        {
          "internalType": "uint256",
          "name": "",
          "type": "uint256"
        }
      ],
      "payable": false,
      "stateMutability": "view",
      "type": "function"
    },
    {
      "constant": true,
      "inputs": [],
      "name": "winner",
      "outputs": [
        {
          "internalType": "address",
          "name": "",
          "type": "address"
        }
      ],
      "payable": false,
      "stateMutability": "view",
      "type": "function"
    },
    {
      "constant": false,
      "inputs": [],
      "name": "play",
      "outputs": [],
      "payable": true,
      "stateMutability": "payable",
      "type": "function"
    },
    {
      "constant": false,
      "inputs": [],
      "name": "kaiJiang",
      "outputs": [],
      "payable": false,
      "stateMutability": "nonpayable",
      "type": "function"
    },
    {
      "constant": false,
      "inputs": [],
      "name": "tuiJiang",
      "outputs": [],
      "payable": false,
      "stateMutability": "nonpayable",
      "type": "function"
    },
    {
      "constant": true,
      "inputs": [],
      "name": "getPlayersCount",
      "outputs": [
        {
          "internalType": "uint256",
          "name": "",
          "type": "uint256"
        }
      ],
      "payable": false,
      "stateMutability": "view",
      "type": "function"
    },
    {
      "constant": true,
      "inputs": [],
      "name": "getBalance",
      "outputs": [
        {
          "internalType": "uint256",
          "name": "",
          "type": "uint256"
        }
      ],
      "payable": false,
      "stateMutability": "view",
      "type": "function"
    },
    {
      "constant": true,
      "inputs": [],
      "name": "getPlayers",
      "outputs": [
        {
          "internalType": "address[]",
          "name": "",
          "type": "address[]"
        }
      ],
      "payable": false,
      "stateMutability": "view",
      "type": "function"
    }
  ],
  "bytecode": "0x608060405234801561001057600080fd5b50336000806101000a81548173ffffffffffffffffffffffffffffffffffffffff021916908373ffffffffffffffffffffffffffffffffffffffff160217905550610870806100606000396000f3fe6080604052600436106100915760003560e01c80638b5b9ccc116100595780638b5b9ccc1461017157806393e84cd9146101dd578063a76594bf146101e7578063dfbf53ae14610212578063f71d96cb1461026957610091565b80630c4e46ac1461009657806312065fe0146100ad578063146ca531146100d8578063481c6a75146101035780636c31e2ea1461015a575b600080fd5b3480156100a257600080fd5b506100ab6102e4565b005b3480156100b957600080fd5b506100c2610406565b6040518082815260200191505060405180910390f35b3480156100e457600080fd5b506100ed61040e565b6040518082815260200191505060405180910390f35b34801561010f57600080fd5b50610118610414565b604051808273ffffffffffffffffffffffffffffffffffffffff1673ffffffffffffffffffffffffffffffffffffffff16815260200191505060405180910390f35b34801561016657600080fd5b5061016f610439565b005b34801561017d57600080fd5b5061018661067c565b6040518080602001828103825283818151815260200191508051906020019060200280838360005b838110156101c95780820151818401526020810190506101ae565b505050509050019250505060405180910390f35b6101e561070a565b005b3480156101f357600080fd5b506101fc610786565b6040518082815260200191505060405180910390f35b34801561021e57600080fd5b50610227610793565b604051808273ffffffffffffffffffffffffffffffffffffffff1673ffffffffffffffffffffffffffffffffffffffff16815260200191505060405180910390f35b34801561027557600080fd5b506102a26004803603602081101561028c57600080fd5b81019080803590602001909291905050506107b9565b604051808273ffffffffffffffffffffffffffffffffffffffff1673ffffffffffffffffffffffffffffffffffffffff16815260200191505060405180910390f35b6000809054906101000a900473ffffffffffffffffffffffffffffffffffffffff1673ffffffffffffffffffffffffffffffffffffffff163373ffffffffffffffffffffffffffffffffffffffff161461033d57600080fd5b60008090505b6001805490508110156103e3576001818154811061035d57fe5b9060005260206000200160009054906101000a900473ffffffffffffffffffffffffffffffffffffffff1673ffffffffffffffffffffffffffffffffffffffff166108fc670de0b6b3a76400009081150290604051600060405180830381858888f193505050501580156103d5573d6000803e3d6000fd5b508080600101915050610343565b506002600081548092919060010191905055506001600061040491906107f5565b565b600047905090565b60025481565b6000809054906101000a900473ffffffffffffffffffffffffffffffffffffffff1681565b6000809054906101000a900473ffffffffffffffffffffffffffffffffffffffff1673ffffffffffffffffffffffffffffffffffffffff163373ffffffffffffffffffffffffffffffffffffffff161461049257600080fd5b60604244600180549050604051602001808481526020018381526020018281526020019350505050604051602081830303815290604052905060008180519060200120905060008160001c9050600060018054905082816104ef57fe5b069050600181815481106104ff57fe5b9060005260206000200160009054906101000a900473ffffffffffffffffffffffffffffffffffffffff16600360006101000a81548173ffffffffffffffffffffffffffffffffffffffff021916908373ffffffffffffffffffffffffffffffffffffffff16021790555060006064605a47028161057957fe5b04905060008147039050600360009054906101000a900473ffffffffffffffffffffffffffffffffffffffff1673ffffffffffffffffffffffffffffffffffffffff166108fc839081150290604051600060405180830381858888f193505050501580156105eb573d6000803e3d6000fd5b506000809054906101000a900473ffffffffffffffffffffffffffffffffffffffff1673ffffffffffffffffffffffffffffffffffffffff166108fc829081150290604051600060405180830381858888f19350505050158015610653573d6000803e3d6000fd5b506002600081548092919060010191905055506001600061067491906107f5565b505050505050565b6060600180548060200260200160405190810160405280929190818152602001828054801561070057602002820191906000526020600020905b8160009054906101000a900473ffffffffffffffffffffffffffffffffffffffff1673ffffffffffffffffffffffffffffffffffffffff16815260200190600101908083116106b6575b5050505050905090565b670de0b6b3a7640000341461071e57600080fd5b60013390806001815401808255809150509060018203906000526020600020016000909192909190916101000a81548173ffffffffffffffffffffffffffffffffffffffff021916908373ffffffffffffffffffffffffffffffffffffffff16021790555050565b6000600180549050905090565b600360009054906101000a900473ffffffffffffffffffffffffffffffffffffffff1681565b600181815481106107c657fe5b906000526020600020016000915054906101000a900473ffffffffffffffffffffffffffffffffffffffff1681565b50805460008255906000526020600020908101906108139190610816565b50565b61083891905b8082111561083457600081600090555060010161081c565b5090565b9056fea265627a7a72315820953d8cf46f1e20771c1f50e25245c74b3d69fd453e7887a4194293bb1b0e8e4364736f6c63430005100032",
  "source": "pragma solidity >=0.4.21 <0.7.0;\n\n\ncontract Lottery {\n    \n    // 1. 管路员：负责开奖和退奖\n    // 2. 彩民池：address[] players\n    // 3. 当前期数：round，每期结束后加一\n\n    //在前端，可以通过访问函数得到manager，round，winner的信息\n    //manager(), round(), winner()\n    \n    address public manager;\n    address[] public players;\n    uint256 public round;\n    address public winner;\n    \n    constructor() public {\n        manager = msg.sender;\n    }\n    \n    //1. 每个人可以投多次，但是每次只能投1ether\n    function play() payable public {\n        require(msg.value == 1 ether);\n        //2. 把参与者加入到彩民池中\n        players.push(msg.sender);\n    }\n    \n    // 开奖函数：\n    // 目标：从彩民池（数组）中找到一个随机彩民（找一个随机数）\n    // 找到一个特别大的数（随机）， 对我们的彩民数组长度求余数。\n    // 用哈数值来实现大的随机数。 v3\n    // 哈希内容的随机：当前时间，区块的挖矿难度，彩民数量，作为输入\n\t\n    \n    \n    function kaiJiang() onlyManager public {\n        \n        bytes memory v1 = abi.encodePacked(block.timestamp, block.difficulty, players.length);\n        bytes32 v2 = keccak256(v1);\n\t\tuint256 v3 = uint256(v2);\n\t\t\n\t\tuint256 index = v3 % players.length;\n\t\t\n\t\twinner = players[index];\n\t\t\n\t\tuint256 money = address(this).balance * 90 / 100;\n\t\tuint256 money1 = address(this).balance - money;\n//        address(uint160(addr1)).transfer(8*10**18);\n        address(uint160(winner)).transfer(money);\n        address(uint160(manager)).transfer(money1);\n//\t\tmanager.transfer(manager);\n\n    round++;\n    delete players;\n\n    }\n\n// 退奖逻辑：\n// 1. 遍历palyers数组，逐一退款1ether\n// 2. 期数加一\n// 3. 彩民池清零\n\n// 调用者花费手续费（管理员）\n\n\nfunction tuiJiang() onlyManager public {\n    for (uint256 i= 0; i < players.length; i++) {\n        address(uint160(players[i])).transfer(1 ether);\n    }\n        \n        round++;\n        delete players;\n    }\n    \n    \n    modifier onlyManager {\n        require(msg.sender == manager);\n        _;\n    }\n\n    //获取彩民人数\n    function getPlayersCount() public view returns(uint256) {\n        return players.length;\n    }\n    \n    //获取余额\n    function getBalance() public view returns(uint256){\n        return address(this).balance;\n    }\n    \n    //获取彩民数组\n    function getPlayers() public view returns(address[] memory) {\n        return players;\n    }\n}",
  "sourcePath": "E:\\EthProject\\truffleres\\contracts\\Lottery.sol",
  "compiler": {
    "name": "solc",
    "version": "0.5.16+commit.9c3226ce.Emscripten.clang"
  },
  "schemaVersion": "3.2.0",
  "updatedAt": "2020-07-15T02:36:41.193Z",
  "devdoc": {
    "methods": {}
  },
  "userdoc": {
    "methods": {}
  }
}